{
  "_format": "hh-sol-artifact-1",
  "contractName": "HelloHedera",
  "sourceName": "contracts/HelloHedera.sol",
  "abi": [
    {
      "inputs": [
        {
          "internalType": "string",
          "name": "message_",
          "type": "string"
        }
      ],
      "stateMutability": "nonpayable",
      "type": "constructor"
    },
    {
      "inputs": [],
      "name": "get_message",
      "outputs": [
        {
          "internalType": "string",
          "name": "",
          "type": "string"
        }
      ],
      "stateMutability": "view",
      "type": "function"
    },
    {
      "inputs": [],
      "name": "get_owner",
      "outputs": [
        {
          "internalType": "address",
          "name": "",
          "type": "address"
        }
      ],
      "stateMutability": "view",
      "type": "function"
    },
    {
      "inputs": [],
      "name": "kill",
      "outputs": [],
      "stateMutability": "nonpayable",
      "type": "function"
    },
    {
      "inputs": [],
      "name": "owner",
      "outputs": [
        {
          "internalType": "address",
          "name": "",
          "type": "address"
        }
      ],
      "stateMutability": "view",
      "type": "function"
    },
    {
      "inputs": [
        {
          "internalType": "string",
          "name": "message_",
          "type": "string"
        }
      ],
      "name": "set_message",
      "outputs": [],
      "stateMutability": "nonpayable",
      "type": "function"
    }
  ],
  "bytecode": "0x608060405234801561001057600080fd5b506040516105ea3803806105ea83398101604081905261002f9161010a565b600080546001600160a01b03191633179055805161005490600190602084019061005b565b5050610214565b828054610067906101d9565b90600052602060002090601f01602090048101928261008957600085556100cf565b82601f106100a257805160ff19168380011785556100cf565b828001600101855582156100cf579182015b828111156100cf5782518255916020019190600101906100b4565b506100db9291506100df565b5090565b5b808211156100db57600081556001016100e0565b634e487b7160e01b600052604160045260246000fd5b6000602080838503121561011d57600080fd5b82516001600160401b038082111561013457600080fd5b818501915085601f83011261014857600080fd5b81518181111561015a5761015a6100f4565b604051601f8201601f19908116603f01168101908382118183101715610182576101826100f4565b81604052828152888684870101111561019a57600080fd5b600093505b828410156101bc578484018601518185018701529285019261019f565b828411156101cd5760008684830101525b98975050505050505050565b600181811c908216806101ed57607f821691505b6020821081141561020e57634e487b7160e01b600052602260045260246000fd5b50919050565b6103c7806102236000396000f3fe608060405234801561001057600080fd5b50600436106100575760003560e01c80630ac298dc1461005c5780632e9826021461008657806332af2edb1461009b57806341c0e1b5146100b05780638da5cb5b146100b8575b600080fd5b6000546001600160a01b03165b6040516001600160a01b0390911681526020015b60405180910390f35b610099610094366004610250565b6100cb565b005b6100a36100f7565b60405161007d9190610301565b610099610189565b600054610069906001600160a01b031681565b6000546001600160a01b031633146100e05750565b80516100f39060019060208401906101a1565b5050565b60606001805461010690610356565b80601f016020809104026020016040519081016040528092919081815260200182805461013290610356565b801561017f5780601f106101545761010080835404028352916020019161017f565b820191906000526020600020905b81548152906001019060200180831161016257829003601f168201915b5050505050905090565b6000546001600160a01b031633141561019f5733ff5b565b8280546101ad90610356565b90600052602060002090601f0160209004810192826101cf5760008555610215565b82601f106101e857805160ff1916838001178555610215565b82800160010185558215610215579182015b828111156102155782518255916020019190600101906101fa565b50610221929150610225565b5090565b5b808211156102215760008155600101610226565b634e487b7160e01b600052604160045260246000fd5b60006020828403121561026257600080fd5b813567ffffffffffffffff8082111561027a57600080fd5b818401915084601f83011261028e57600080fd5b8135818111156102a0576102a061023a565b604051601f8201601f19908116603f011681019083821181831017156102c8576102c861023a565b816040528281528760208487010111156102e157600080fd5b826020860160208301376000928101602001929092525095945050505050565b600060208083528351808285015260005b8181101561032e57858101830151858201604001528201610312565b81811115610340576000604083870101525b50601f01601f1916929092016040019392505050565b600181811c9082168061036a57607f821691505b6020821081141561038b57634e487b7160e01b600052602260045260246000fd5b5091905056fea2646970667358221220bc8fd7e00dc3ad80b3d022cec9acd8b9ba5b5280ca926792e17b0e5875b3fca864736f6c63430008080033",
  "linkReferences": {},
  "deployedLinkReferences": {}
}